{
  "contractName": "PowerUp",
  "abi": [
    {
      "anonymous": false,
      "inputs": [
        {
          "indexed": false,
          "internalType": "address",
          "name": "station",
          "type": "address"
        },
        {
          "indexed": false,
          "internalType": "uint256",
          "name": "value",
          "type": "uint256"
        },
        {
          "indexed": false,
          "internalType": "uint256",
          "name": "total",
          "type": "uint256"
        },
        {
          "indexed": false,
          "internalType": "bytes32",
          "name": "hash",
          "type": "bytes32"
        }
      ],
      "name": "powerAdded",
      "type": "event"
    },
    {
      "inputs": [
        {
          "internalType": "address",
          "name": "",
          "type": "address"
        }
      ],
      "name": "power",
      "outputs": [
        {
          "internalType": "uint256",
          "name": "",
          "type": "uint256"
        }
      ],
      "stateMutability": "view",
      "type": "function"
    },
    {
      "inputs": [
        {
          "internalType": "uint256",
          "name": "value",
          "type": "uint256"
        },
        {
          "internalType": "bytes32",
          "name": "hash",
          "type": "bytes32"
        }
      ],
      "name": "add",
      "outputs": [],
      "stateMutability": "nonpayable",
      "type": "function"
    },
    {
      "inputs": [],
      "name": "total",
      "outputs": [
        {
          "internalType": "uint256",
          "name": "",
          "type": "uint256"
        }
      ],
      "stateMutability": "view",
      "type": "function"
    },
    {
      "inputs": [
        {
          "internalType": "bytes32",
          "name": "hash",
          "type": "bytes32"
        }
      ],
      "name": "validate",
      "outputs": [
        {
          "internalType": "uint256",
          "name": "",
          "type": "uint256"
        }
      ],
      "stateMutability": "view",
      "type": "function"
    }
  ],
  "bytecode": "0x608060405234801561001057600080fd5b50610525806100206000396000f3fe608060405234801561001057600080fd5b506004361061004c5760003560e01c80632ddbd13a146100515780632e0126981461006f578063503371a51461009f578063764e971f146100cf575b600080fd5b6100596100eb565b604051610066919061028d565b60405180910390f35b610089600480360381019061008491906102e3565b610131565b604051610096919061028d565b60405180910390f35b6100b960048036038101906100b4919061036e565b61014e565b6040516100c6919061028d565b60405180910390f35b6100e960048036038101906100e491906103c7565b610166565b005b60008060003373ffffffffffffffffffffffffffffffffffffffff1673ffffffffffffffffffffffffffffffffffffffff16815260200190815260200160002054905090565b600060016000838152602001908152602001600020549050919050565b60006020528060005260406000206000915090505481565b80600160008281526020019081526020016000205460001461018757600080fd5b826000803373ffffffffffffffffffffffffffffffffffffffff1673ffffffffffffffffffffffffffffffffffffffff16815260200190815260200160002060008282546101d59190610436565b925050819055504360016000848152602001908152602001600020819055507f1a41ef98c3d3427f6042f2494e39f79034384fe865c9ebf414a02261b2f0b93433846000803373ffffffffffffffffffffffffffffffffffffffff1673ffffffffffffffffffffffffffffffffffffffff168152602001908152602001600020548560405161026794939291906104aa565b60405180910390a1505050565b6000819050919050565b61028781610274565b82525050565b60006020820190506102a2600083018461027e565b92915050565b600080fd5b6000819050919050565b6102c0816102ad565b81146102cb57600080fd5b50565b6000813590506102dd816102b7565b92915050565b6000602082840312156102f9576102f86102a8565b5b6000610307848285016102ce565b91505092915050565b600073ffffffffffffffffffffffffffffffffffffffff82169050919050565b600061033b82610310565b9050919050565b61034b81610330565b811461035657600080fd5b50565b60008135905061036881610342565b92915050565b600060208284031215610384576103836102a8565b5b600061039284828501610359565b91505092915050565b6103a481610274565b81146103af57600080fd5b50565b6000813590506103c18161039b565b92915050565b600080604083850312156103de576103dd6102a8565b5b60006103ec858286016103b2565b92505060206103fd858286016102ce565b9150509250929050565b7f4e487b7100000000000000000000000000000000000000000000000000000000600052601160045260246000fd5b600061044182610274565b915061044c83610274565b9250827fffffffffffffffffffffffffffffffffffffffffffffffffffffffffffffffff0382111561048157610480610407565b5b828201905092915050565b61049581610330565b82525050565b6104a4816102ad565b82525050565b60006080820190506104bf600083018761048c565b6104cc602083018661027e565b6104d9604083018561027e565b6104e6606083018461049b565b9594505050505056fea26469706673582212200b71215e14de74fd75fedb093f1f219fd69112835fe0e8ddb1233f94137ee0db64736f6c634300080a0033",
  "immutableReferences": {},
  "source": "//SPDX-License-Identifier: MIT\r\n\r\npragma solidity >=0.5.0 <0.9.0;\r\n\r\ncontract PowerUp {\r\n\r\n    mapping(address => uint256) public power;\r\n    mapping(bytes32 => uint256) private hashes;\r\n\r\n    event powerAdded(\r\n        address station,\r\n        uint256 value,\r\n        uint256 total,\r\n        bytes32 hash\r\n    );\r\n\r\n    modifier hashOnlyOnces(bytes32 hash){\r\n        require(0 == hashes[hash]);\r\n        _;\r\n    }\r\n\r\n    function add(\r\n        uint256 value,\r\n        bytes32 hash\r\n    )public hashOnlyOnces(hash) {\r\n        power[msg.sender] += value;\r\n        hashes[hash] = block.number;\r\n        emit powerAdded(msg.sender,value, power[msg.sender],hash);\r\n    }\r\n\r\n    function total() public view returns(uint256) {\r\n\r\n        return power[msg.sender];\r\n\r\n    }\r\n\r\n    function validate(bytes32 hash)public view returns(uint256){\r\n        return hashes[hash];\r\n    }\r\n\r\n}",
  "sourcePath": "C:\\Users\\DELL\\Desktop\\try2POC\\contracts\\PowerUp.sol",
  "compiler": {
    "name": "solc",
    "version": "0.8.10+commit.fc410830.Emscripten.clang"
  },
  "schemaVersion": "3.4.3",
  "updatedAt": "2021-12-05T09:14:37.118Z",
  "devdoc": {
    "kind": "dev",
    "methods": {},
    "version": 1
  },
  "userdoc": {
    "kind": "user",
    "methods": {},
    "version": 1
  }
}